:020000040800F2
:1000000000000220390B0008050B0008070B000850
:10001000090B00080B0B00080D0B00080000000086
:100020000000000000000000000000000F0B0008AE
:10003000110B000800000000130B0008150B00084E
:10004000890B0008890B0008890B0008890B000840
:10005000890B0008890B0008890B0008890B000830
:10006000890B0008890B0008890B0008890B000820
:10007000890B0008890B0008890B0008890B000810
:10008000890B0008890B0008890B0008890B000800
:10009000890B0008890B0008890B0008890B0008F0
:1000A000890B0008190B0008890B0008890B000850
:1000B000890B0008890B0008890B0008890B0008D0
:1000C000890B0008890B0008890B0008890B0008C0
:1000D000890B0008890B0008890B0008890B0008B0
:1000E000890B0008890B0008890B0008890B0008A0
:1000F000890B0008890B0008890B0008890B000890
:10010000890B0008890B0008890B0008890B00087F
:10011000890B0008890B0008890B0008890B00086F
:10012000890B0008890B0008890B0008890B00085F
:10013000890B00080000000000000000890B000887
:10014000890B0008890B0008890B0008890B00083F
:10015000890B0008890B0008890B0008890B00082F
:10016000890B0008890B0008890B0008890B00081F
:10017000890B0008890B0008890B000800000000AB
:1001800000000000890B00080000000000000000D3
:10019000890B00080000000000000000890B000827
:1001A000000000000000000000000000890B0008B3
:1001B000890B0008890B0008890B0008890B0008CF
:0401C000890B00089F
:1001C40010B5054C237833B9044B13B10448AFF38D
:1001D40000800123237010BD0C00002000000000EB
:1001E400081B000808B5034B1BB103490348AFF3D0
:1001F400008008BD0000000010000020081B00085B
:1002040053B94AB9002908BF00281CBF4FF0FF3179
:100214004FF0FF3000F074B9ADF1080C6DE904CE75
:1002240000F006F8DDF804E0DDE9022304B07047CD
:100234002DE9F047089D04468E46002B4DD18A4295
:10024400944669D9B2FA82F252B101FA02F3C2F1C8
:10025400200120FA01F10CFA02FC41EA030E944059
:100264004FEA1C48210CBEFBF8F61FFA8CF708FB7A
:1002740016E341EA034306FB07F199420AD91CEB52
:10028400030306F1FF3080F01F81994240F21C8184
:10029400023E63445B1AA4B2B3FBF8F008FB1033CC
:1002A40044EA034400FB07F7A7420AD91CEB040401
:1002B40000F1FF3380F00A81A74240F207816444D1
:1002C400023840EA0640E41B00261DB1D440002356
:1002D400C5E900433146BDE8F0878B4209D9002DBA
:1002E40000F0EF800026C5E9000130463146BDE844
:1002F400F087B3FA83F6002E4AD18B4202D38242AE
:1003040000F2F980841A61EB030301209E46002D5C
:10031400E0D0C5E9004EDDE702B9FFDEB2FA82F2B1
:10032400002A40F09280A1EB0C014FEA1C471FFA0F
:100334008CFE0126200CB1FBF7F307FB131140EAF6
:1003440001410EFB03F0884208D91CEB010103F1C3
:10035400FF3802D2884200F2CB804346091AA4B285
:10036400B1FBF7F007FB101144EA01440EFB00FE59
:10037400A64508D91CEB040400F1FF3102D2A645BE
:1003840000F2BB800846A4EB0E0440EA03409CE75D
:10039400C6F12007B34022FA07FC4CEA030C20FA0A
:1003A40007F401FA06F31C43F9404FEA1C4900FA2A
:1003B40006F3B1FBF9F8200C1FFA8CFE09FB1811A7
:1003C40040EA014108FB0EF0884202FA06F20BD91A
:1003D4001CEB010108F1FF3A80F08880884240F26A
:1003E4008580A8F102086144091AA4B2B1FBF9F0AE
:1003F40009FB101144EA014100FB0EFE8E4508D9A9
:100404001CEB010100F1FF346CD28E456AD902382D
:10041400614440EA0840A0FB0294A1EB0E01A14212
:10042400C846A64656D353D05DB1B3EB080261EB80
:100434000E0101FA07F722FA06F3F1401F43C5E95A
:10044400007100263146BDE8F087C2F12003D84090
:100454000CFA02FC21FA03F3914001434FEA1C47D2
:100464001FFA8CFEB3FBF7F007FB10360B0C43EAC4
:10047400064300FB0EF69E4204FA02F408D91CEB74
:10048400030300F1FF382FD29E422DD90238634472
:100494009B1B89B2B3FBF7F607FB163341EA034112
:1004A40006FB0EF38B4208D91CEB010106F1FF3861
:1004B40016D28B4214D9023E6144C91A46EA004658
:1004C40038E72E46284605E70646E3E61846F8E6EA
:1004D4004B45A9D2B9EB020864EB0C0E0138A3E733
:1004E4004646EAE7204694E74046D1E7D0467BE714
:1004F400023B614432E7304609E76444023842E78C
:10050400704700BF10B594B01022002109A801F073
:10051400F1FA1422002102A801F0ECFA224B002186
:1005240000911A6C42F080521A641B6C03F08053E1
:100534000093009B1D4B01911A6842F440421A60DB
:100544001B6803F440430193019B01214FF4803362
:100554000224CDE907134FF480030420CDE90D43B1
:10056400B423CDE90F0307A8CDE91144139400F097
:10057400EBFD08B172B6FEE700F08AFC08B172B672
:10058400FEE70F23CDE9023404904FF4A0524FF458
:100594008053052102A8CDE9052300F0B3FC08B17E
:1005A40072B6FEE714B010BD00380240007000407F
:1005B4002DE9F0478EB000F0E7FAFFF7A3FF14220D
:1005C400002109A8002401F095FAA84B01941A6BA4
:1005D400A74842F010021A631A6B02F0100201924B
:1005E400019A02941A6B42F004021A631A6B02F025
:1005F40004020292029A03941A6B42F020021A63D4
:100604001A6B02F020020392039A04941A6B42F0CC
:1006140080021A631A6B02F080020492049A059411
:100624001A6B42F001021A631A6B02F0010205927E
:10063400059A06941A6B42F002021A631A6B02F0CE
:1006440002020692069A07941A6B42F040021A6359
:100654001A6B02F040020792079A08941A6B42F050
:1006640008021A631B6B03F00803089322464FF633
:10067400FF71089B00F0FEFB7E4822464EF23F319C
:1006840000F0F8FB7C4822464FF6FF7100F0F2FBC5
:100694007A48224649F6071100F0ECFB78482246D6
:1006A40040F6377100F0E6FB764822464FF6FF71BC
:1006B40000F0E0FB224674484FF69A4100F0DAFB62
:1006C40001274FF6FF786A4809A9CDE90987CDE9E2
:1006D4000B4400F0FBFA4EF23F33664809A9CDE91A
:1006E4000937CDE90B4400F0F1FA634809A9CDE9D3
:1006F4000987CDE90B4400F0E9FA49F607135F488E
:1007040009A903250226CDE909374FF00509CDE9EA
:100714000B4400F0DBFAF02358480B9409A9CDE907
:100724000C59CDE9093600F0D1FA40F63773544834
:1007340009A9CDE90937CDE90B4400F0C7FA5148BE
:1007440009A9CDE90987CDE90B4400F0BFFA4FF4BC
:1007540070434B48CDF8349009A9CDE90936CDE969
:100764000B454FF0070A00F0B1FA4FF440734648C6
:10077400CDF834A009A9CDE90936CDE90B4500F03F
:10078400A5FA4FF69A43404809A9CDE909374FF035
:1007940008084FF0C009CDE90B4400F097FA35483A
:1007A400CDF8348009A9CDE90B45CDE9099600F0CF
:1007B4008DFA4FF440632F48CDF8348009A9CDE970
:1007C4000936CDE90B4500F081FA4FF480532948EE
:1007D400CDF8348009A9CDE90936CDE90B4500F0FF
:1007E40075FA29480B9409A9CDE9097400F06EFA49
:1007F40004272548CDF8348009A9CDE90B45CDE976
:10080400097600F063FA60231F48CDF834A009A9E3
:10081400CDE90936CDE90B4500F058FA1223184802
:10082400CDF8249009A9CDE90A34CDE90C5700F09C
:100834004DFA164D164A2C614FF4E133C5E90023F5
:1008440028460C23C5E90244C5E90534EC6101F0EE
:100854004DF808B172B6FEE70E480F4B036000F086
:1008640025FA0446D0B172B6FEE700BF0038024054
:100874000010024000080240001402400000024040
:100884000004024000180240000C02403000002026
:100894000010014028000020003002402148DFF809
:1008A4008890DFF88080394600F0E9FA1D4810216D
:1008B40000F0E5FA4FF0FF3301220DF10301284661
:1008C40001F097F858BB661C04F138030DEB0304E0
:1008D400B6B29DF8033004F8143C052E0FD99DF8E8
:1008E40024305F2B11D106F138036B4413F8153C07
:1008F4006E2B0AD1314609A800F022F80026042103
:10090400404600F0BCFA3446D4E7092EF7D94FF03C
:10091400FF3305224946284601F016F8EEE726463D
:10092400EDE700BF00180240201B00080268034BDB
:100934009A4201D100F042B9704700BF0000014063
:1009440070B5B0F801305BBA9BB20633994207D157
:10095400C5788488012D64BAA4B206D0022D14D0BF
:100964004FF0FF330122CC210AE01021084800F0A7
:1009740086FA204600F034F94FF0FF330122AC210F
:10098400BDE87040034800F0DFBF0421EEE700BF7C
:10099400001802403000002082B00C4B002100916E
:1009A4005A6C42F480425A645A6C02F480420092B7
:1009B400009A01911A6C42F080521A641B6C03F085
:1009C40080530193019B02B0704700BF003802407E
:1009D4000268094B9A4282B00BD100230193074B62
:1009E4001A6B42F480521A631B6B03F48053019315
:1009F400019B02B0704700BF003002400038024043
:100A040010B5044688B01422002103A801F072F83E
:100A14002268144B9A4223D103F5943300210191A7
:100A24005A6C114842F010025A645A6C02F01002D7
:100A34000192019A02911A6B42F001021A631B6B34
:100A440003F001030293029B4FF4C06202230321CB
:100A5400CDE903230723CDE9061303A900F036F9F2
:100A640008B010BD001001400000024070B588B00D
:100A740000241E4B02945A6C1D4D42F001025A642C
:100A84005B6C03F0010301A90293064603A8029BD1
:100A940000F0F4FA00F0E2FA164B2B6040F2E73370
:100AA400EB6043001448B3FBF0F32846013B2C6190
:100AB400AC60AC616B6000F057FE044680B9284618
:100AC40000F00CFD044658B9192000F0E1F80F2E8F
:100AD40009D822463146192000F0A8F8074B1E60B9
:100AE400204608B070BD0124FAE700BF0038024078
:100AF400740000200000014040420F000800002064
:100B0400FEE7FEE7FEE7FEE7FEE770477047704743
:100B140070470000014800F01FBD00BF74000020B2
:100B2400034AD2F8883043F47003C2F8883070471F
:100B340000ED00E0DFF834D00D480E490E4A0023E2
:100B440002E0D458C4500433C4188C42F9D30B4A7D
:100B54000B4C002301E013600432A242FBD3FFF7E5
:100B6400DFFF00F0A3FFFFF723FD70470000022022
:100B7400000000200C000020501B00080C00002086
:100B8400C0000020FEE7000008B50B4B1A6842F4D1
:100B940000721A601A6842F480621A601A6842F499
:100BA40080721A60032000F02FF80F20FFF75EFF19
:100BB400FFF7F2FE002008BD003C0240034A044B4C
:100BC40011681B780B441360704700BFBC00002001
:100BD40004000020014B1868704700BFBC000020CF
:100BE40038B50446FFF7F6FF631C1CBF054B1B78A2
:100BF400054618BFE418FFF7EDFF431BA342FAD3E1
:100C040038BD00BF040000200749CA6822F4E0622E
:100C14000302120403F4E063120C134343F0BF63B2
:100C240043F40033CB60704700ED00E0164B30B561
:100C3400DC68C4F30224C4F10705231D042D28BF76
:100C44000425062B4FF0FF338CBF033C002403FA2A
:100C540005F521EA0501A34022EA0302A140002888
:100C640041EA0203ACBF00F16040084A4FEA0313B3
:100C7400B8BF00F00F00DBB2AABF00F56140135407
:100C840080F8003330BD00BF00ED00E014ED00E05B
:100C9400002808DB4209012300F01F0003FA00F0DA
:100CA400014B43F82200704700E100E010B5044610
:100CB40050B1437903F0FF0213B90271FFF788FEC4
:100CC40001236371002010BD0120FCE72DE9F74FDB
:100CD400DFF89C91644A00230D6801249C4004EAD7
:100CE400050CAC4340F0AD804D6805F003044FEAB9
:100CF40043080326671E06FA08F6012F6FEA060664
:100D040034D8876807EA060ECF6807FA08F747EA77
:100D14000E078760476827EA0C0EC5F300179F404B
:100D240047EA0E074760C76807EA060E8F6807FAA6
:100D340008F747EA0E07022CC76019D14FEAD30A15
:100D440000EB8A0A03F0070BDAF820704FEA8B0BEA
:100D54004FF00F0E0EFA0BFE27EA0E0E0F6907FA7C
:100D64000BF747EA0E07CAF8207001E0032CDAD12A
:100D7400076804FA08F43E40264315F4403F066031
:100D84005FD04FF0000ACDF804A0D9F84460374C86
:100D940046F48046C9F84460D9F8446006F48046B5
:100DA4000196019E23F0030606F1804606F59C3663
:100DB40003F0030ED6F808804FEA8E0E0F2707FAC9
:100DC4000EF7A04228EA070742D004F58064A04247
:100DD40040D004F58064A0423ED004F58064A04273
:100DE4003CD004F58064A0423AD004F58064A0426B
:100DF40038D004F58064A0420CBF0624072404FA0A
:100E04000EF43C43B46094686FEA0C06EF0254BFDE
:100E140034404CEA04049460D468AF0254BF3440B4
:100E24004CEA0404D4605468AF0354BF34404CEA21
:100E3400040454601468ED0354BF34404CEA0404C1
:100E440014600133102B7FF447AF03B0BDE8F08F7B
:100E54005446D4E70124D2E70224D0E70324CEE7A2
:100E64000424CCE70524CAE7003C0140000002400A
:100E7400003802400AB1816170470904FBE7436905
:100E840001EA030221EA030141EA02418161704758
:100E940037B500230193184B184D1A6C42F0805259
:100EA4001A641B6C03F080530193019B144B0122C1
:100EB4001A64FFF78FFE04466B68DA030BD5104BF8
:100EC4000E4D01225A64FFF785FE04466B689B03AE
:100ED4000AD5002006E0FFF77DFE001BB0F57A7FFF
:100EE400EAD9032003B030BDFFF774FE001BB0F550
:100EF4007A7FEBD9F5E700BF00380240007000406C
:100F040000000E422DE9F0410D46044610B90120BF
:100F1400BDE8F081444B1A6802F00F028A4228D3DC
:100F2400226897072DD4D00741D43F4B1A6802F0AA
:100F34000F02AA4266D8226851076CD4130707D55A
:100F44003A4A2169936823F4604343EAC1039360F6
:100F540000F0B2F8354B364A9B68C3F30313D35CF5
:100F6400D840344B1860344B1868FFF77FFD0020DD
:100F7400CEE7CAB21A701B6803F00F038B42C6D1C6
:100F8400CEE72A4B12F0040F1EBF996841F4E051DA
:100F94009960160742BF996841F4604199602349FA
:100FA400A0688B6823F0F00303438B60BBE762689F
:100FB4001E4B012A1CD11B6813F4003FA7D01B4E03
:100FC400B36823F003031343B360FFF703FE41F256
:100FD40088380746B368626803F00C03B3EB820FEA
:100FE400A3D0FFF7F7FDC01B4045F3D903208FE7DB
:100FF400911E01291B6802D813F0007FDEE713F06D
:10100400020FDBE7EAB21A701B6803F00F03AB426E
:101014007FF47DAF8FE70549E0688B6823F4E053E4
:1010240003438B608AE700BF003C02400038024063
:10103400261B00080000002008000020044B054A7D
:101044009B68C3F38223D35C034A1068D84070477B
:1010540000380240361B000800000020044B054AFB
:101064009B68C3F34233D35C034A1068D84070478B
:1010740000380240361B0008000000200F230360E4
:101084000B4B9A6802F0030242609A6802F0F00285
:1010940082609A6802F4E052C2609B68DB0803F441
:1010A400E0530361034B1B6803F00F030B607047AD
:1010B40000380240003C0240204908B58B6803F028
:1010C4000C03082B07D00C2B20D01D481D4A042BE1
:1010D40008BF104608BD4A684B68496813F480038A
:1010E40014BF18481648C1F3881118BF002302F032
:1010F4003F02A1FB0001FFF783F8104B5B68C3F3C9
:10110400014301335B00B0FBF3F0E3E74A684B684B
:10111400496813F4800314BF0A480948C1F38811CD
:1011240018BF002302F03F02A1FB0001FFF768F89B
:10113400024B5B68C3F30273E5E700BF003802406B
:101144000024F40000127A002DE9F341044600283B
:1011540030D00368DF0710D423689E0763D4236864
:101164001A0700F1AD8023685B0700F1CD80A06908
:10117400002840F03581002034E0964B9A6802F054
:101184000C02042A0FD09A6802F00C02082A02D139
:101194005A68550207D49A6802F00C020C2A0BD143
:1011A4005B68580208D58B4B1B689903D4D56368D8
:1011B400002BD1D1012015E06368864DB3F5803F43
:1011C40013D12B6843F480332B60FFF703FD814E6A
:1011D400054633689A03BFD4FFF7FCFC401B642820
:1011E400F7D9032002B0BDE8F081B3F5A02F04D1F4
:1011F4002B6843F480232B60E3E72A6822F48032CF
:101204002A602A6822F480222A60002BDDD1FFF7AD
:10121400E1FC06462B689B039ED5FFF7DBFC801B95
:101224006428F7D9DDE76B4B9A6812F00C0F0FD0E6
:101234009A6802F00C02082A02D15A68570207D5AC
:101244009A6802F00C020C2A11D15B685E020ED47B
:10125400604A13689D0702D5E368012BAAD113687D
:10126400216923F0F80343EAC103136077E7E268D6
:10127400594BB2B101221A60FFF7ACFC554D06463A
:101284002B68980707D52B68226923F0F80343EAF3
:10129400C2032B6063E7FFF79DFC801B0228EFD994
:1012A4009FE71A60FFF796FC4A4E05463368990794
:1012B4007FF555AFFFF78EFC401B0228F6D990E767
:1012C4006269454B82B10122C3F8802EFFF782FC8C
:1012D400404E0546736F9F073FF545AFFFF77AFC15
:1012E400401B0228F6D97CE7C3F8802EFFF772FC76
:1012F400384E0546736F98077FF535AFFFF76AFCE4
:10130400401B0228F6D96CE7324B1A6C12F080525B
:1013140028D101921A6C42F080521A641B6C03F0BB
:1013240080530193019B01272C4D2B68D9051BD5B4
:10133400A368284D012B27D12B6F43F001032B67A2
:10134400FFF748FC234E054641F28838336F9B076C
:1013540039D5002F3FF40BAF1E4A136C23F0805392
:10136400136404E70027DFE72B6843F480732B60E2
:10137400FFF730FC06462B68DA05D9D4FFF72AFCC0
:10138400801B0228F7D92CE7052B04D12B6F43F0DF
:1013940004032B67D0E72A6F22F001022A672A6F21
:1013A40022F004022A67002BCAD1FFF713FC41F292
:1013B400883806462B6F9807CBD5FFF70BFC801BAC
:1013C4004045F7D90DE7FFF705FC401B4045BDD963
:1013D40007E700BF003802400000474200700040A9
:1013E4003B4DAB6803F00C03082B40D0394B002273
:1013F40002281A662ED1FFF7EDFB06462B689901E9
:1014040022D4D4E907321343626A43EA8213E26ABC
:1014140043EA0263226B43EA0273A26A5208013A66
:1014240043EA02436B602B4B294D01221A66FFF7F6
:10143400D1FB04462B689A013FF59DAEFFF7CAFB2A
:10144400001B0228F6D9CCE6FFF7C4FB801B022858
:10145400D4D9C6E6FFF7BEFB04462B689B017FF593
:101464008AAEFFF7B7FB001B0228F6D9B9E60128BC
:101474003FF4B8AE6B68E26903F4800191427FF4F3
:1014840099AE216A03F03F028A427FF493AE616A07
:1014940047F6C0721A40B2EB811F7FF48BAEA26A8A
:1014A400520803F44031013AB1EB024F7FF482AEAB
:1014B400E16A03F07062B2EB016F7FF47BAE226BE2
:1014C40003F0E043B3EB027F3FF455AE72E600BF96
:1014D40000380240000047427047000090F83D3059
:1014E400012B30D1022380F83D300368DA6842F0E2
:1014F4000102DA60154A93421AD0B3F1804F17D033
:10150400A2F57C42934213D002F5806293420FD03D
:1015140002F5806293420BD002F57842934207D0E1
:1015240002F57052934203D0A2F59432934204D14F
:101534009A6802F00702062A03D01A6842F00102F0
:101544001A60002070470120704700BF000001406E
:10155400704770477047704703681A69910710B560
:1015640004460ED5DA6892070BD56FF002021A61B1
:10157400012202779B699B0777D0FFF7EAFF0023DC
:10158400237723681A69500710D5DA6851070DD5F7
:101594006FF004021A61022222779B6913F4407FE0
:1015A400204668D0FFF7D5FF0023237723681A6904
:1015B40012070FD5DA6810070CD56FF008021A610C
:1015C40004222277DB69990720465AD0FFF7C1FF2E
:1015D4000023237723681A69D20610D5DA68D00667
:1015E4000DD56FF010021A6108222277DB6913F41B
:1015F400407F20464BD0FFF7ACFF002323772368BE
:101604001A69D10708D5DA68D20705D56FF0010247
:101614001A612046FFF78AF923681A69100608D56B
:10162400DA68110605D56FF080021A61204600F0D1
:10163400C8F823681A69520608D5DA68500605D531
:101644006FF040021A612046FFF785FF23681A698C
:10165400910622D5DA6892061FD56FF02002204643
:101664001A61BDE8104000F0ABB8FFF771FF2046E7
:10167400FFF770FF83E7FFF76BFF2046FFF76AFF72
:1016840092E7FFF765FF2046FFF764FFA0E7FFF747
:101694005FFF2046FFF75EFFAFE710BD304A0368E7
:1016A400904212D0B0F1804F0FD0A2F57C4290420C
:1016B4000BD002F58062904207D002F5806290421E
:1016C40003D002F57842904219D14A6823F070039E
:1016D4001343234A904229D0B0F1804F26D0A2F57B
:1016E4007C42904222D002F5806290421ED002F5E4
:1016F400806290421AD002F57842904216D0194A7C
:10170400904213D002F5806290420FD002F58062BD
:1017140090420BD0A2F59832904207D002F5806235
:10172400904203D002F58062904203D1CA6823F448
:10173400407313434A6923F08003134303608B68A7
:10174400C3620B688362064B984203D003F580633F
:10175400984201D10B69036301234361704700BFC1
:10176400000001400040014010B5044630B390F839
:101774003D3003F0FF021BB980F83C20FFF7ACFEBC
:101784000223206884F83D30211DFFF787FF0123E1
:1017940084F84630002084F83E3084F83F3084F8E2
:1017A400403084F8413084F8423084F8433084F87F
:1017B400443084F8453084F83D3010BD0120FCE706
:1017C400704770470268C168136923F440530B43A0
:1017D40070B51361054683680069D168034368697D
:1017E4000343E86921F4164121F00C0103430B4340
:1017F400D3605369A96923F440730B4353611F4BAE
:101804009A4203D003F580639A4223D1FFF726FC62
:10181400EB691921B3F5004FD5E90046A0FB01019E
:101824001BD1B2194FF000035B41FEF7E9FC6421C0
:10183400B0FBF1F501FB1503DB003233B3FBF1F32D
:1018440003F007025B0002EB051203F4F873134480
:10185400A36070BDFFF7F2FBDAE7B200B30FFEF747
:10186400CFFC6422B0FBF2F102FB11031B01323303
:10187400B3FBF2F303EB0113EAE700BF00100140EE
:10188400F8B504460E4617461D462268136836EA24
:10189400030301D1002028E06B1CF7D025B1FFF72A
:1018A40099F9C01B8542F0D2226802F10C0353E877
:1018B400003F23F4D0730C3242E800302168002842
:1018C400F2D101F1140353E8003F23F0010301F1C5
:1018D400140040E80032002AF3D1202384F83D307C
:1018E40084F83C2084F83E300320F8BD10B504464B
:1018F40040B390F83D3003F0FF021BB980F83C2060
:10190400FFF77EF82268242384F83D30D36823F45B
:101914000053D3602046FFF755FF23681A6922F469
:1019240090421A615A6922F02A025A61DA6842F432
:101934000052DA6000202023206484F83D3084F8CB
:101944003E3010BD0120FCE7F7B5174690F83D2066
:101954000093202A04460E4649D1002945D0002F81
:1019640043D090F83C20012A41D0012280F83C2049
:1019740000252122056480F83D20FFF72BF9A1689A
:10198400009BA784B1F5805F0246E78403D12169F7
:1019940009B935460E46002184F83C10E18C89B221
:1019A40041B940212046FFF76BFF60B9202384F83A
:1019B4003D3009E080212046CDE90023FFF760FF98
:1019C400DDE9002310B1032003B0F0BD20684EB957
:1019D40035F8021BC1F308014160E18C013989B279
:1019E400E184DBE716F8011BF6E70120ECE70220AF
:1019F400EAE72DE9F843994690F83E30202B044657
:101A04000F4615464DD1002949D0002A47D090F8F9
:101A14003C30012B45D0012380F83C3000262223A2
:101A2400066480F83E300663FFF7D4F8A368A58502
:101A3400B3F5805F8046E58503D123690BB93E4643
:101A44001F46002384F83C30E58DA8B220B920233A
:101A540084F83E30BDE8F8834B46424620212046B8
:101A6400FFF70EFFF8B923684FB95B68C3F30803A7
:101A740026F8023BE38D013B9BB2E385E4E7A268D1
:101A8400B2F5805F02D032B9226922B95968C9B26D
:101A940007F8011BEEE7596801F07F01F8E7012020
:101AA400D8E70220D6E70320D4E7000070B50D4D37
:101AB4000D4C641BA4100026A64209D10B4D0C4CFE
:101AC40000F020F8641BA4100026A64205D170BDC6
:101AD40055F8043B98470136EEE755F8043B984720
:101AE4000136F2E7481B0008481B0008481B0008A1
:101AF4004C1B000802440346934200D1704703F88C
:101B0400011BF9E7F8B500BFF8BC08BC9E46704756
:0C1B1400F8B500BFF8BC08BC9E46704746
:101B20004E41434B0A00000000000000000001028B
:101B30000304060708090000000001020304000076
:081B4000F4E6FF7F0100000044
:041B4800E9010008A7
:041B4C00C5010008C7
:0C1B50000024F400010000001000000060
:0400000508000B39AB
:00000001FF
